:020000040800F2
:10000000A8EB0020C10100086D760008716D0008A2
:100010006976000805060008ADE30008000000004E
:10002000000000000000000000000000898E0008B1
:100030005F10000800000000537900088B8E000854
:10004000DB010008DB010008DB010008DB01000820
:10005000DB010008DB010008DB010008DB01000810
:10006000DB010008B5130008BF130008DB0100081E
:10007000DB010008DB010008DB010008DB010008F0
:10008000DB010008DB010008DB010008DB010008E0
:10009000DB010008DB010008DB010008C9130008D0
:1000A000DB010008DB010008DB010008DB010008C0
:1000B000DB010008DB010008DB010008DB010008B0
:1000C000DB010008DB010008DB010008DB010008A0
:1000D000DB0100081D950008DB0100088195000880
:1000E000DB010008DB010008DB010008DB01000880
:1000F000DB010008DB010008DB010008DB01000870
:10010000DB010008DB010008DB010008DB0100085F
:10011000DB010008DB010008D18F0008DB010008CB
:10012000DB010008DB010008DB010008DB0100083F
:10013000DB010008DB010008DB010008DB0100082F
:10014000DB010008DB010008DB0100087176000814
:10015000DB010008DB010008DB010008DB0100080F
:10016000DB010008DB010008DB010008DB010008FF
:10017000DB01000881760008DB01000800000000B8
:10018000DB010008DB010008DB010008DB010008DF
:10019000DB010008DB010008DB010008DB010008CF
:1001A000DB010008DB010008DB010008DFF80CD0F0
:1001B00000F0B0F800480047E93A0108A8EB002039
:1001C0000648804706480047FEE7FEE7FEE7FEE7F1
:1001D000FEE7FEE7FEE7FEE7FEE7FEE76D8F0008BD
:1001E000AD0100082DE9F05F0546002092469B46D0
:1001F00088460646814640241BE02846414647463D
:10020000224600F076F853465A46C01A914110D360
:1002100011461846224600F05DF82D1A67EB0108DA
:100220004F4622460120002100F054F817EB000948
:100230004E41201EA4F10104DFDC484631462A4627
:100240004346BDE8F09F40EA01039B0703D009E065
:1002500008C9121F08C0042AFAD203E011F8013BB2
:1002600000F8013B521EF9D27047D2B201E000F80B
:10027000012B491EFBD270470022F6E710B513464A
:100280000A4604461946FFF7F0FF204610BD30B578
:1002900004460020034600E05B1C934203D2E05C6E
:1002A000CD5C401BF8D030BD30B50B460146002078
:1002B0002022012409E021FA02F59D4205D303FA28
:1002C00002F5491B04FA02F52844151EA2F10102A9
:1002D000F1DC30BD202A04DB203A00FA02F10020D4
:1002E00070479140C2F1200320FA03F31943904074
:1002F0007047202A04DB203A21FA02F000217047DF
:1003000021FA02F3D040C2F120029140084319467D
:1003100070470000064C074D06E0E06840F001031E
:1003200094E8070098471034AC42F6D3FFF742FF39
:1003300038BF010858BF010870B58C1810F8015B70
:1003400015F0070301D110F8013B2A1106D110F86E
:10035000012B03E010F8016B01F8016B5B1EF9D172
:100360002B0705D40023521E0DD401F8013BFAE7F8
:1003700010F8013BCB1A921C03E013F8015B01F863
:10038000015B521EF9D5A142D8D3002070BD0000F8
:1003900055494A6822F440324A604A6843681A4321
:1003A0004A600268526822F4807203685A600268E8
:1003B0005368026943EA022203685A60026852687D
:1003C00022F0407203685A600268526883681A43D8
:1003D00003685A600268926822F4006203689A60B7
:1003E00002689268C3681A4303689A603F4B826A46
:1003F0009A4218D00268926822F0706203689A608C
:1004000002689268836A1A4303689A600268926875
:1004100022F0405203689A6002689268C36A1A43E5
:1004200003689A600BE00268926822F070620368C9
:100430009A600268926822F0405203689A600268EB
:10044000926822F0020203689A6002689368027E52
:1004500043EA420203689A602022125CA2B1026859
:10046000526842F4006203685A600268526822F4DB
:10047000604203685A6002685368426A521E43EA47
:10048000423203685A6005E00268526822F4006252
:1004900003685A600268D26A22F470020368DA6262
:1004A0000268D36A828B521E43EA02520368DA6200
:1004B0000268926822F4007203689A600268936886
:1004C00090F8302043EA422203689A6002689268FA
:1004D00022F4806203689A6002689368426943EA82
:1004E000822203689A607047002301400100000FD8
:1004F0007047000010B501240221034802F0A4F95E
:1005000000B10024204610BD0020024010B5044672
:100510002146024804F070FE10BD00003C5200204D
:1005200010B5044804F07BFE042801D0012010BD62
:100530000020FCE73C52002010B5002400F014F825
:10054000012801D0012010BD064804F07CFE0446BD
:1005500034B94FF40061034804F002FD00B10124F6
:100560002046F0E73C52002008B501200090FFF73C
:10057000C1FF08B9002000909DF8000008BD0000F0
:100580002DE9F84304460D4616461F464FF0000875
:1005900033462A4621460548009704F015FF08B166
:1005A0004FF001084046BDE8F88300003C520020AF
:1005B0002DE9F84304460D4616461F464FF0000845
:1005C00033462A4621460548009705F023F808B12E
:1005D0004FF001084046BDE8F88300003C5200207F
:1005E00010B5034607E018880C88A04201D000200F
:1005F00010BD9B1C891C101EA2F10104A2B2F2D1F5
:100600000120F5E700BFFEE70346042B15D007DC09
:100610007BB1012B0ED0022B0DD0032B2AD10BE086
:10062000202B0BD0212B22D0222B21D0232B21D1E8
:100630001FE020E01FE01EE01DE01CE00F480078F6
:1006400008700E480088000A48700C480068000CCA
:1006500088700A480068000EC87008480079087160
:1006600006484079487105488079887103E002E0C6
:1006700001E000E000BF00BF00207047D000002074
:100680000020704710B500220449054809F0E9F838
:100690000449034809F0DEF8002010BD7C5D00200D
:1006A000D85300207C5C002070B504460D460648F7
:1006B00009F0ACF8214605482A68FFF7C4FD01207F
:1006C00003490870002070BDD85300207C5C0020D6
:1006D000E00000202DE9F04104460D4600260A48BE
:1006E000D0F89072D7F8140210B10120BDE8F08163
:1006F0002A462146044809F0B4F8034809F035F9C0
:1007000006463046F2E70000D853002010B56D4889
:100710000078002871D000206A49087000F024FC9D
:100720002C286BD2DFE800F016191D2125292D3168
:1007300035393D4145494D5155595D61657B7F6B6B
:100740006F737783878B8F93979B9FA3A7ABAFB272
:10075000B5B8BEC612F03EFEB2E000200EF0CEF8F4
:10076000AEE0002011F04EFBAAE001200EF0C6F82A
:10077000A6E0012011F046FBA2E002200EF0BEF838
:100780009EE0022011F03EFB9AE003200EF0B6F846
:1007900096E0032011F036FB92E004200EF0AEF854
:1007A0008EE0042011F02EFB8AE005200EF0A6F862
:1007B00086E0052011F026FB82E006200EF09EF870
:1007C0007EE0062011F01EFB7AE007200EF096F87E
:1007D00076E0072011F016FB72E008200EF08EF88C
:1007E0006EE0082011F00EFB6AE009200EF086F89A
:1007F00066E0092011F006FB62E062E05DE00A209D
:100800000EF07CF85CE00A2011F0FCFA58E00B20B6
:100810000EF074F854E00B2011F0F4FA50E00C20C4
:100820000EF06CF84CE00C2011F0ECFA48E00D20D2
:100830000EF064F844E00D2011F0E4FA40E00E20E0
:100840000EF05CF83CE00E2011F0DCFA38E00F20EE
:100850000EF054F834E00F2011F0D4FA30E01020FC
:100860000EF04CF82CE0102011F0CCFA28E000201B
:100870001AF05EFB24E001201AF05AFB20E002206F
:100880001AF056FB1CE000F083FE19E00DF000FBAF
:1008900016E007F067F913E00EF0CEFA0A4807F009
:1008A00011FA0DE00EF096FA08480178084807F0B2
:1008B000CDF805E012F010FF02E00EF087FE00BF59
:1008C00000BF10BDE00000207C5E0020F40000208E
:1008D0008E5E002010B5002407F0C8FA0446544884
:1008E000007884420BD05248047024B11E2151A0DC
:1008F00009F064FD03E01D2156A009F05FFD07F03B
:10090000D1FA04465B48007884420BD05948047001
:1009100024B1212158A009F051FD03E020215FA05E
:1009200009F04CFD07F0DAFA044664480078844286
:100930000BD06248047024B11C2161A009F03EFD77
:1009400003E01B2165A009F039FD07F0D5FA044644
:100950006948007884420BD06748047024B11C2198
:1009600066A009F02BFD03E01B216BA009F026FD1A
:1009700007F06EFA04466F48007884420BD06D4849
:10098000047024B113216CA009F018FD03E01221BA
:100990006EA009F013FD07F0CBFA0446704800780A
:1009A00084420BD06E48047024B116216DA009F06A
:1009B00005FD03E0152171A009F000FD07F0C6FA5E
:1009C00004467448007884420BD07248047024B105
:1009D000162171A009F0F2FC03E0152174A009F0C2
:1009E000EDFC07F06DFA04467748007884420BD09E
:1009F0007548047024B1132174A009F0DFFC03E0F2
:100A0000122177A009F0DAFC07F03EFA0446794893
:100A1000007884420BD07748047024B1172176A067
:100A200009F0CCFC03E0162179A009F0C7FC10BD49
:100A3000160000204578697420427574746F6E202A
:100A4000696E70757420697320436C6F7365210D36
:100A50000A0000004578697420427574746F6E2036
:100A6000696E707574206973204F70656E210D0A70
:100A700000000000170000205253343835207374F2
:100A8000617465206973204F757470757428736C78
:100A90006176657229210D0A000000005253343836
:100AA0003520737461746520697320496E707574A4
:100AB000286D617374657229210D0A0018000020E9
:100AC000524431204465746563746F7220696E20EE
:100AD000697320436C6F7365210D0A005244312005
:100AE0004465746563746F7220696E206973204F6A
:100AF00070656E210D0A000019000020524432205A
:100B00004465746563746F7220696E206973204355
:100B10006C6F7365210D0A00524432204465746580
:100B200063746F7220696E206973204F70656E2147
:100B30000D0A00001A00002041726D20696E2069C4
:100B40007320436C6F7365210D0A000041726D20A4
:100B5000696E206973204F70656E210D0A000000D8
:100B60001B00002053656E736F7220696E206973DD
:100B700020436C6F7365210D0A00000053656E738E
:100B80006F7220696E206973204F70656E210D0AA7
:100B9000000000001C00002054616D706572206927
:100BA0006E20697320436C6F7365210D0A0000008D
:100BB00054616D70657220696E206973204F706595
:100BC0006E210D0A000000001D000020505355202A
:100BD000696E20697320436C6F7365210D0A0000F4
:100BE00050535520696E206973204F70656E210D3A
:100BF0000A0000001E000020436F6E7461637420C1
:100C0000696E20697320436C6F7365210D0A0000C3
:100C1000436F6E7461637420696E206973204F7036
:100C2000656E210D0A00000010B51A491A4802F03D
:100C30008FFB08B100F0F8FB16480088012811D19D
:100C40001448408842F27E2188420BD111488088A6
:100C500042F22121884205D10E48C08842F201218A
:100C6000884201D000F0E0FB0B4802F0EFFB4FF0B0
:100C7000C0424FF40041084802F0BEF94FF6FF723F
:100C80004FF0C041044802F027FA08B100F0CCFB55
:100C9000012010BD580000208420002010B52549F7
:100CA000254806F08DFE012843D164200EF0E6F9B8
:100CB0001C2122A009F082FB64200EF0DFF906213E
:100CC00025A009F07BFB64200EF0D8F919480178C3
:100CD000194809F073FB64200EF0D0F9032120A01D
:100CE00009F06CFB64200EF0C9F907211DA009F082
:100CF00065FB104800780A2190FBF1F030301B4969
:100D000008700C4800780A2190FBF1F201FB1200F8
:100D100030301649487064200EF0B0F902211348B3
:100D200009F04CFB64200EF0A9F90A2110A009F08B
:100D300045FB10BD0B0000203C0500205253343809
:100D40003520686176652072656365697665642023
:100D500064617461210D0A00444154413A0000006D
:100D60000D0A0000546F74616C2000000C0000201C
:100D7000204279746573210D0A00000010B51AF045
:100D800027FA5A480078002855D0002057490870A3
:100D9000262157A009F012FB64200EF06FF90621FE
:100DA0005DA009F00BFB5E4800780A2190FBF1F092
:100DB00030305C4908705A4800780A2190FBF1F203
:100DC00001FB120030305749487000205449087028
:100DD00020205449887054480079C87052490868E6
:100DE0000979000E40EA01204E4908714E49086811
:100DF0000979000C40EA01404A4948714A48018893
:100E00000079020642EA1120464988714648007876
:100E1000C8710020444A10605060C8200EF02EF9BE
:100E20000821404809F0CAFAC8200EF027F9042129
:100E30003EA009F0C3FA3F480078002855D00020B2
:100E40003C49087026213CA009F0B8FA64200EF055
:100E500015F9062130A009F0B1FA414800780A21BD
:100E600090FBF1F030302F4908703D4800780A219E
:100E700090FBF1F201FB120030302A49487000204B
:100E80003749087020202749887036480079C87093
:100E9000344801680079020242EA11602149087170
:100EA000304908680979000C40EA01401D49487141
:100EB0002C4801880079020642EA112019498871FC
:100EC00028480078C8710020264A10605060C82069
:100ED0000EF0D4F80821134809F070FAC8200EF07B
:100EE000CDF8042111A009F069FA10BD48000020D6
:100EF00052454144455231206861766520726563F0
:100F000065697665642077656967616E64206461F0
:100F10007461210D0A000000426974733A000000F8
:100F20002E0000200E000020380000200D0A0D0ABF
:100F30000000000049000020524541444552322043
:100F4000686176652072656365697665642077659A
:100F50006967616E642064617461210D0A0000009C
:100F6000300000204000002070B52C2400242BE02D
:100F70000026C4EB0411164A02EB410012F021FADC
:100F80000546002017E0C4EB0411114A02EB4101B1
:100F9000095C69B10F49095CC4EB04120C4B03EB0B
:100FA0004202125C914202D1711CCEB201E004E017
:100FB00003E0411CC8B2A842E5DB00BFAE4201D14C
:100FC000204670BD601CC4B22C2CD1DB2046F8E753
:100FD000F4B601087C5C00200022002109E00948E9
:100FE000405C094B5B5C984201D1501C82B2481CAA
:100FF00081B2FF29F3D9B2F5807F01D1012070477A
:101000000020FCE73C0400203C03002001460022B5
:1010100005E0002301F5607040F82230521C0F2AD1
:10102000F7D3002204E0002301F58E708354521C94
:10103000B2F5007FF7D30020087048700120887057
:101040000020C1F8BC0301230B7640238B710023E1
:101050004B7681F81C33012381F81D3370477047AC
:10106000016801F58051896941F00202016801F5CA
:1010700080518A617047016801F58051896941F4A6
:101080000052016801F580518A61704708B508492E
:101090000968C9084FF47A72B1FBF2F1414300913B
:1010A00000BF00BF00994A1E00920029F9D108BD77
:1010B0000C01002038B5044600200090206800F59F
:1010C0008050806940F48011206800F58050816173
:1010D000206800F58050806900900120FFF7D6FF5E
:1010E0000099206800F58050816138BD30B5034615
:1010F0001479557944EA0520084C0C442064D478CE
:101100002406957844EA0544557844EA0524157880
:1011100044EA0500014C0C44606430BD008002408C
:1011200070B5AEB004460E46002526B14FF40061FE
:10113000E160C900A16000201190129013901490FA
:1011400015901690E06918B94FF48060179001E08F
:10115000002017904FF400701890002019901A90FA
:101160001B901C901D9040201E9000201F902090EE
:1011700021902290239024902590269080202790E3
:101180000020289029902A902B902C902D90206858
:10119000056871480540DDE91101084313990843CA
:1011A00014990843A1680843159908431699084300
:1011B000E1680843179908431899084319990843A7
:1011C0001A9908431B990843054320680560206865
:1011D0000568012000F0E4FC20680560DDE91C01E1
:1011E00008431E9908431F990843209908432199F1
:1011F00008432299084323990843216848602068DE
:101200004568012000F0CCFC2068456024982168E6
:10121000886025982168C860206885694FF641700C
:101220000540DDE9261040EA014028990843299944
:1012300008432A9908432B99084305432068856190
:1012400020688569012000F0ABFC20688561DDE93C
:101250002C0108432168C8612068C569012000F09D
:101260009FFC2068C561002001904FF00070029043
:10127000002003904FF40010049000200590069089
:101280000790089004200990C0050A9040120B9026
:1012900080010C9040120D9080200E9000200F9045
:1012A0001090206800F5805085692C480540DDE9E4
:1012B0000101084303990843049908430599084329
:1012C0000699084307990843089908430999084370
:1012D0000543206800F580508561206800F5805046
:1012E0008569012000F05CFC206800F58050856174
:1012F000DDE90A0108430C9908430D9908430E994A
:1013000008430F9940EA81001099084340F4000116
:10131000206800F580500160206800F58050056865
:10132000012000F03DFC206800F580500560A069B8
:10133000012809D1206800F58050C0690849084398
:10134000216801F58051C861002120466269FFF7DC
:10135000CDFE2EB070BD00000F8120FF233FDEF8D0
:101360004000010038B50446002000902068006865
:1013700040F00400216808602068006800900120A7
:10138000FFF784FE00982168086038BD38B5044630
:10139000002000902068006840F008002168086084
:1013A0002068006800900120FFF770FE0098216817
:1013B000086038BD10B5082001F02AF910BD10B53D
:1013C000102001F025F910BD10B58021084801F06A
:1013D0003BFA10B1802001F01BF94FF480710448F2
:1013E00001F032FA18B14FF4807001F011F910BD1C
:1013F000001C024010B500220221092002F067F80B
:10140000092002F054F8002203210A2002F05FF8BC
:101410000A2002F04CF800220421172002F057F8AD
:10142000172002F044F810BD704730B504460D4651
:1014300000222946204600F001F830BDF0B50346F1
:10144000012500241148807B02281CDA00200F4E61
:10145000B67B0E4FB8553846867B001D40F82630C7
:10146000001F867B0C3082553E46B07B461CBE7307
:10147000044604F1300008703A2048702F2088702C
:101480000020C87000252846F0BD000080650020BF
:1014900010B5A4B0022420222DA11AA8FEF7D3FE75
:1014A00033493448FFF7C1FF002849D100223049B1
:1014B00031480FF07FFC08B1012442E04FF4007086
:1014C0002E4B00220721009029480FF031F908B176
:1014D0000E2436E00A222AA12C480FF09BFC08B10A
:1014E00007242EE023AB20221AA928480FF0D0FEB3
:1014F0000446239800B10CB10A2422E023480FF0DF
:1015000001F901221EA121480FF084FC08B1052435
:1015100017E022AB642201A91C480FF093FD04469A
:10152000229800B10CB104240BE018480FF0EAF83F
:10153000DDE92201884201D0082402E0002400E015
:1015400002240B4800F07CF8204624B010BD0000B7
:101550005468697320697320534420636172642066
:1015600074657374207769746820466174467300EB
:101570004C000020CCB60108C4150020841E0020B9
:10158000544553542E54585400000000F4170020C2
:1015900010B52D2108A008F011FFFFF779FF20B941
:1015A000292111A008F00AFF04E0292119A008F060
:1015B00005FF00BF00BF10BD42656767696E2074FC
:1015C00065737420746865205344206361726420DD
:1015D0007769746820464154465320737973746563
:1015E0006D210D0A000000005344206361726420E5
:1015F0007769746820464154465320737973746543
:101600006D205445535420504153534544210D0AF5
:10161000000000005344206361726420776974689D
:101620002046415446532073797374656D205445A8
:101630005354204641494C4544210D0A0000000006
:1016400010B504460021204600F002F810BD00004D
:1016500030B502460B46002101200D4CA47B012C25
:1016600014DB1478303CE1B2094C241D54F82140BD
:1016700064B10025064C241D44F8215008346554FB
:101680000C3CA47B641E024DAC73002030BD0000F6
:101690008065002070B504461D460023B5F5804FD7
:1016A00013D154F822300C480340D1E9000640EA37
:1016B00006108E6840EA06208E8940EA06408E6950
:1016C0003043034344F8223003E06FF0704044F8A5
:1016D0002200002070BD00000000F0CF10B50246CF
:1016E0000023086852F8203018480340D1E901046B
:1016F0002043CC6820430C6920434C6920438C690B
:101700002043CC6920430C6A20434C6A20438C6AF6
:101710002043CC6A2043CC6B20430C6B20434C6BA2
:10172000204303438868082801D143F04003086838
:1017300042F82030486BB0F5801F05D1086818B119
:1017400010684C6B20431060002010BD8000E0FF4B
:1017500030B5034614460022601C53F8202002F0E6
:101760004042D1E9000540EA05108D6840EA0520B5
:101770008D8940EA0545088A401E45EA0055087DE6
:10178000801E45EA00608D6928430243601C43F8CF
:101790002020186800F48010B0F5801F07D1586829
:1017A00020F47002088A401E42EA00525A6000206B
:1017B00030BD30B50246002300240868012816D049
:1017C00013686FF30E03D1E901052843CD68284360
:1017D0000D6928434D6928438D692843CD69284305
:1017E0000D6A28434D6A28430343136019E01368C8
:1017F00023F4F843D1E9070528434D6A28430343FE
:1018000054686FF30E04D1E901052843CD682843DD
:101810000D6928434D6928438D69284304431360AB
:101820005460002030BD000070B50346154600220C
:101830000024012D1FD09A6802F070420868401EF3
:101840004E68761E40EA06168868401E46EA002664
:10185000C868401E46EA0036088A401E46EA00462E
:10186000888A401E46EA0056087E401E46EA00600E
:1018700002439A6022E09A6811480240C868401EFC
:101880000603888A401E46EA00500243DC6804F0E2
:1018900070440868401E4E68761E40EA0616886846
:1018A000401E46EA0026088A401E46EA0046087E98
:1018B000401E46EA006004439A60DC60002070BD70
:1018C000FF0F0FFF10B50346002000BF04E084188F
:1018D00023F81040441CA0B28842F8D310BD000089
:1018E00070B50A480468001D0568001D0668344488
:1018F00054B108220649204605F03CFA0422044966
:101900001031284605F036FA70BD0000107AFF1F2E
:10191000B600002038B502460020009000BF92F8C3
:101920003C00012801D1022038BD012082F83C0092
:1019300000BF0868092816D91068C0680C780A3CEE
:1019400004EB44050724AC40A0431468E0600C7825
:101950000A3C04EB44048868A0401468E46820430F
:101960001468E06013E0106800690C7804EB44052B
:101970000724AC40A043146820610C7804EB4404B5
:101980008868A0401468246920431468206148686E
:10199000072817D21068406B0C79641E04EB84058D
:1019A0001F24AC40A04314686063088880B20C799F
:1019B000641E04EB8404A0401468646B2043146824
:1019C000606331E048680D2817D21068006B0C790D
:1019D000E41F04EB84051F24AC40A043146820637B
:1019E000088880B20C79E41F04EB8404A0401468DA
:1019F000246B20431468206316E01068C06A0C79D9
:101A00000D3C04EB84051F24AC40A0431468E06245
:101A1000088880B20C790D3C04EB8404A040146863
:101A2000E46A20431468E0621E4B1F4C1068A04219
:101A30000AD10868122807D1586820F400005860BD
:101A4000586840F480005860174C1068A04222D1BA
:101A5000164C0868A04202D0086811281BD15868AB
:101A600020F480005860586840F4000058600F4C23
:101A70000868A0420FD10E4800680E4CB0FBF4F08D
:101A800000EB80004000009002E00098401E0090B3
:101A900000980028F9D100BF002082F83C0000BF68
:101AA00000BF41E700230140002001401200001068
:101AB0000C01002040420F0070B5044600250CB90F
:101AC000012070BD1549A06A884200D000BF206C7B
:101AD00030B9204600F024F80020606484F83C000F
:101AE000206C00F0100088B9206C20F4885040F081
:101AF000020020642046FEF74BFC00206064206C4E
:101B000020F0020040F00100206400E0012500BF49
:101B1000002084F83C0000BF2846D2E70100000FF7
:101B200010B586B00446142101A8FEF7A5FB19499B
:101B3000206888422BD100BF002000901648006822
:101B400040F48060144908600846006800F4806032
:101B5000009000BF00BF00BF002000900E48143866
:101B6000006840F020000C491439086008460068FD
:101B700000F02000009000BF00BF08150190032076
:101B800002900020039001A9044800F04FFD06B028
:101B900010BD000000220140443802400014024001
:101BA00070B5044600F05EFE06462546681C10B17E
:101BB00004480078054400BF00F054FE801BA84292
:101BC000FAD370BD0801002070B504460D461646D4
:101BD000002200BF94F84500012801D1022070BD09
:101BE000012084F8450000BF022084F84400A5626B
:101BF00000221FE005EB42114FF00040086044F264
:101C0000F4504860C2EBC21000EB400006EB8000CD
:101C10008860A069012803D1486820F0004048602E
:101C2000581E904204D905EB42102030C86000E0F5
:101C3000CD60521C9A42DDD3206800F58050C5600B
:101C4000012084F8440000BF002084F8450000BF54
:101C500000BFC4E770B504460D461646002200BF1B
:101C600094F84500012801D1022070BD012084F8BC
:101C7000450000BF022084F84400E56200221BE01A
:101C800005EB42114FF480100860C2EBC21000EB6C
:101C9000400006EB80008860E06918B9086840F4ED
:101CA00040000860581E904204D905EB42102030D5
:101CB000C86000E0CD60521C9A42E1D3206800F574
:101CC00080500561012084F8440000BF002084F8A2
:101CD000450000BF00BFC8E70146002200BF91F8E1
:101CE0004500012801D102207047012081F84500FC
:101CF00000BF022081F84400886A006800F00040BC
:101D0000002838D1886A006800F48070F0B1886BD0
:101D1000401C8863886B012801D1886A08638B6A3C
:101D20004B63886A0068C0F30D40021FCA63086BEA
:101D300083680B64886AC0688862012081F8440067
:101D400000BF002081F8450000BFCDE7886A006829
:101D500000F4007048B1886A086300234B630123D4
:101D60008B63886AC068886205E0886B401C886362
:101D7000886AC0688862012081F8440000BF0020A2
:101D800081F8450000BF0120AEE700002DE9FC41CD
:101D900004460025002001909D4E0027804614B97E
:101DA0000120BDE8FC8194F8440028B9002084F8A3
:101DB0004500204600F03AF900BF00200090954809
:101DC000006840F48040934908600846006800F4C9
:101DD0008040009000BF00BF8F48006820F40000E2
:101DE0008D49086008460068216A08438A490860EE
:101DF000206800F58050006840F00101206800F57F
:101E00008050016000F02EFD07460FE000F02AFD33
:101E1000C01BB0F5FA7F09D9032084F8440000BF45
:101E2000002084F8450000BF0320BAE7206800F5D1
:101E30008050006800F001000028E7D120680569A3
:101E400025F01C0502F0C2FB06467448864205D305
:101E50007348864202D245F008051AE0704886426F
:101E600005D36B48864202D245F00C0511E0684864
:101E7000864203D36B48864200D20AE06948864214
:101E800005D36948864202D245F0040501E045F0D9
:101E90001005206805614FF400420021204600F043
:101EA000A4FA48B14FF0010841462046FFF738F93F
:101EB000012084F8440074E7FF20FFF771FE60689A
:101EC000002871D000F0CEFC074600BF01AA012116
:101ED000204600F079F900F0C5FCC01B41F28831C2
:101EE00088420FD94FF0010841462046FFF718F904
:101EF000012084F8440000BF002084F8450000BFA2
:101F000003204EE7019800F004000428DED182028D
:101F10000021204600F069FA48B14FF0010841461F
:101F20002046FFF7FDF8012084F8440039E700F06F
:101F300099FC074600BF01AA0121204600F044F9A0
:101F400000F090FCC01B41F2883188420FD94FF05D
:101F5000010841462046FFF7E3F8012084F84400D9
:101F600000BF002084F8450000BF032019E7019856
:101F700000F020002028DED101AA1F21204600F019
:101F800023F948B14FF0010841462046FFF7C8F851
:101F9000012084F8440004E7019800F0100020B10B
:101FA0004FF40061E16002E00DE00021E160019882
:101FB00000F00400042802D10021A1601EE04FF4CB
:101FC0008041A1601AE0E068C0F3CF00A168C1F3CE
:101FD0004F0140EA01020021204600F006FA48B114
:101FE0004FF0010841462046FFF79AF8012084F897
:101FF0004400D6E640F6FF70FFF7D2FD414620468A
:10200000FFF78EF8012084F844000020C9E60000A4
:10201000008793034438024004380140002D310109
:10202000C00E160200E1F50580D1F00810B586B0AB
:102030000446142101A8FEF71FF95D492068884273
:102040007ED100BF00BF002000905A48006840F0D9
:102050000070584908600846006800F00070009061
:1020600000BF00BF00BF002000900846006840F09D
:10207000806008600846006800F08060009000BF43
:1020800000BF00BF002000900846006840F00060DC
:1020900008600846006800F00060009000BF00BFC4
:1020A00000BF00BF002000900846006840F0040018
:1020B00008600846006800F00400009000BF00BF00
:1020C00000BF002000900846006840F00100086052
:1020D0000846006800F00100009000BF00BF00BF8C
:1020E000002000900846006840F0020008600846A2
:1020F000006800F00200009000BF00BF00BF002099
:1021000000900846006840F04000086008460068FB
:1021100000F04000009000BF00BF3220019002207C
:10212000029000200390032004900B20059001A949
:10213000214800F07BFA862001900220029000E006
:1021400034E000200390032004900B20059001A9A7
:102150001A4800F06BFA4FF44050019002200290B0
:1021600000200390032004900B20059001A914483F
:1021700000F05CFA4FF40060019002200290002011
:102180000390032004900B20059001A90D4800F056
:102190004DFA00224021094800F05EFB3220FFF793
:1021A000FFFC01224021054800F056FB06B010BD9F
:1021B0000080024030380240000802400000024027
:1021C00000040240001802402DE9F04104460E468A
:1021D00017460025A84694F84400822802D1022020
:1021E000BDE8F081822084F844002068056905F08C
:1021F0001C05208A4FF4784101EAC02005434811AC
:1022000000EA8610054325F0020545F00105206827
:10221000056100F027FB804612E000F023FBA0EBF5
:102220000800B0F5803F09D3012084F8440000BFC6
:10223000002084F8450000BF0320D1E7206805692D
:1022400005F001000028E8D12068406980B23860BC
:10225000012084F844000020C2E710B5044600BF06
:1022600094F84500012801D1022010BD012084F816
:10227000450000BF022084F844002046FFF786F89E
:102280002046FFF76FF82046FEF714FF2046FEF7C2
:10229000F2FE2046FEF7E4FE012084F8440000BF71
:1022A000002084F8450000BF00BFDEE770B502469D
:1022B00000230025002400BF92F84500012801D129
:1022C000022070BD012082F8450000BF022082F884
:1022D000440049B9012082F8440000BF002082F880
:1022E000450000BF0120ECE7D06A006800F0004024
:1022F00048B1122082F8440000BF002082F8450057
:1023000000BF0120DDE740F2F450814208D9B1FB63
:10231000F0F3B1FBF0F600FB161010B15B1C00E00F
:102320000123012B13D1D06A006840F04050D66AD7
:102330003060C1F30C00D66A7060D06A006840F06B
:102340000040D66A3060D06AC068D06232E00024B3
:102350002EE0D06A006820F04050D66A30602CB978
:10236000D06A006840F08050D66A306040F2F45085
:10237000D66A7060581EA04210D1D06A006840F042
:102380000050D66A3060581EC0EBC01000EB400011
:10239000A1EB8005C5F30C00D66A7060D06A0068B6
:1023A00040F00040D66A3060D06AC068D062641CD9
:1023B0009C42CED3106800F58050406900F00400C4
:1023C00048B10426106800F5805046610026106868
:1023D00000F580504660012082F8440000BF0020D4
:1023E00082F8450000BF00BF6BE72DE9F0410446CD
:1023F0000E4617460025A84694F84400422802D10C
:102400000220BDE8F081422084F84400206805697C
:1024100005F01C05208A4FF4784101EAC0200543ED
:10242000481100EA8610054345F0020545F0010514
:10243000B8B2216848612068056100F013FA80464F
:1024400012E000F00FFAA0EB0800B0F5803F09D3CE
:10245000012084F8440000BF002084F8450000BF3C
:102460000320CEE72068056905F001000028E8D1C7
:10247000012084F844000020C3E7000000B587B0C5
:10248000142102A8FDF7F8FE3148006808B107B032
:1024900000BD01202E49086000BF002001902D489A
:1024A000006840F001002B4908600846006800F011
:1024B0000100019000BF00BF4FF6F87002900220AB
:1024C000039000200490032005900C20069002A9A0
:1024D000214800F0ABF84FF63F0002900220039035
:1024E00000200490032005900C20069002A91B48B0
:1024F00000F09CF80D200290022003900020049030
:10250000032005900C20069002A9154800F08EF8D3
:1025100048F23F1002900220039000200490032014
:1025200005900C20069002A90E4800F07FF84FF6A7
:10253000B3700290022003900020049003200590C5
:102540000C20069002A9084800F070F800BF9EE732
:1025500060000020383802400010024000140240A1
:102560000008024000180240000C024008280CD16C
:1025700001211D4A11701D4A11701D490978491C1D
:102580001B4A117000211B4A117010280CD1012127
:10259000154A1170184A117015490978491C144AD6
:1025A00011700021134A117080280CD10121134AA7
:1025B0001170134A117013490978491C114A11709E
:1025C0000021114A1170B0F5807F0CD101210B4A16
:1025D00011700E4A11700B490978491C094A117093
:1025E0000021094A11707047280000202B000020AC
:1025F0002E0000202F0000202A00002029000020AB
:102600002D00002030000020310000202C00002090
:1026100010B5044604480068204020B10248046018
:102620002046FFF7A3FF10BD143C0140F8B5024659
:102630000B460025002400200021E6E0012606FAD2
:1026400001F51E6806EA0504AC4273D15E68022EED
:1026500002D05E68122E13D1CF0802F1200656F880
:1026600027004E07F70E0F26BE40B0434F07FF0E60
:102670001E69BE403043CF0802F1200646F827000D
:1026800010684F000326BE40B0431E7906F00306D3
:102690004F00BE40304310605E68012E08D05E6877
:1026A000022E05D05E68112E02D05E68122E13D164
:1026B00090684F000326BE40B0434F00DE68BE4026
:1026C00030439060506801268E40B0431E79C6F3B7
:1026D00000168E4030435060D0684F000326BE4045
:1026E000B0434F009E68BE403043D0605E6806F045
:1026F0008056B6F1805FA8D100BF00260096454EF7
:10270000366846F48046434F3E603E46366806F4DF
:102710008046009600BF00BF3F4E8F0856F8270046
:102720008E07370F0F26BE40B0433C4EB24202D157
:1027300000262EE068E03A4EB24201D1012628E0A0
:10274000384EB24201D1022623E0374EB24201D1C7
:1027500003261EE0354EB24201D1042619E0344E64
:10276000B24201D1052614E0324EB24201D1062612
:102770000FE0314EB24201D107260AE02F4EB2429D
:1027800001D1082605E02E4EB24201D1092600E013
:102790000A268F073F0FBE4030431F4E8F0846F872
:1027A0002700284E3068A0435E6806F48036B6F5F0
:1027B000803F00D12043234E3060361D3068A04357
:1027C0005E6806F40036B6F5003F00D120431D4E8A
:1027D000361D3060361D3068A0435E6806F48016F2
:1027E000B6F5801F00D12043164E08363060361DE6
:1027F0003068A0435E6806F40016B6F5001F00D1ED
:102800002043104E0C363060491C1029FFF416AFDF
:10281000F8BD000044380240083801400000024082
:102820000004024000080240000C02400010024078
:102830000014024000180240001C02400020024028
:1028400000240240003C0140024613690B400BB1DA
:10285000012000E0002070470AB1816101E00B0413
:102860008361704701480068704700000001002044
:1028700010B50446D4F8C00208F042FC10BD10B5F3
:102880000446D4F8C00208F053FC10BD10B504464D
:1028900020680BF04BF810BD10B5044620680BF013
:1028A0005FF810BD024601EB810302F1380000EB36
:1028B000C30090F824007047024601EB810302F147
:1028C000380000EBC3004069704770B504460D4600
:1028D000002600BF94F8B802012801D1022070BD83
:1028E000012084F8B80200BF294620680BF049F89F
:1028F00000BF002084F8B80200BF3046EFE72DE9A2
:10290000FE4F04460D4616461F46DDE90D9ADDF8DA
:10291000308000BF94F8B802012802D10220BDE83F
:10292000FE8F012084F8B80200BF002105EB85026C
:1029300004F1380000EBC200417105EB850104F1A0
:10294000380000F8317005EB850100EBC100A0F8FC
:1029500008A005EB850104F1380000EBC1004570CB
:1029600005EB850104F1380000EBC10080F8079009
:1029700006F07F0105EB850204F1380000EBC20090
:10298000817006F08000802808D1012105EB8502C6
:1029900004F1380000EBC200C17007E0002105EB34
:1029A000850204F1380000EBC200C17005EB85011F
:1029B00004F1380000EBC10080F804808DE80007C6
:1029C0003B463246294620680BF096F8834600BF06
:1029D000002084F8B80200BF5846A0E770472DE9F0
:1029E000F05F04460D4616461F46DDE90C9BDDE907
:1029F0000A8A05EB850104F1380000EBC100C670BE
:102A000005EB850104F1380000EBC100C771B8F196
:102A1000000F08D1032105EB850204F1380000EB1B
:102A2000C200817207E0022105EB850204F1380043
:102A300000EBC200817237B1012F74D0022F2BD06E
:102A4000032F71D15DE0B8F1010F24D11EBBB9F1A4
:102A5000000F07D1012105EB850204F1380000EBDE
:102A6000C200417605EB850104F1380000EBC1009E
:102A7000407E40B9002105EB850204F1380000EBEF
:102A8000C200817207E0022105EB850204F13800E3
:102A900000EBC200817275E0CEB905EB850104F14F
:102AA000380000EBC100407E40B9002105EB8502F3
:102AB00004F1380000EBC200817221E0022105EB35
:102AC000850204F1380000EBC200817218E005EBCA
:102AD000850104F1380000EBC100007E40B90021FF
:102AE00005EB850204F1380000EBC200817207E0BB
:102AF000022105EB850204F1380000EBC20081726F
:102B000040E0DEB905EB850104F1380000EBC100BF
:102B1000407E50B9002105EB850204F1380000EB3E
:102B2000C200817223E023E02BE0022105EB850245
:102B300004F1380000EBC200817218E005EB85015A
:102B400004F1380000EBC100007E40B9002105EB24
:102B5000850204F1380000EBC200817207E0022117
:102B600005EB850204F1380000EBC200817209E038
:102B7000002105EB850204F1380000EBC2008172F0
:102B800000E000BF00BF05EB850104F1380000EB59
:102B9000C100C0F80CA005EB850104F1380000EB82
:102BA000C100C0F81090002105EB850204F1380047
:102BB00000EBC20080F8241005EB850204F1380018
:102BC00000EBC200416105EB850104F1380000EB28
:102BD000C1004570002105EB850204F1380000EBCF
:102BE000C20080F82510227C05EB850C04F1380327
:102BF00003EBCC0120680BF061F8BDE8F09F2DE9F4
:102C0000F0410446D4F80080464620680AF0B4FE3D
:102C1000012871D120680BF06FFA08B9BDE8F08186
:102C200020680BF069FA00F40010B0F5001F03D122
:102C30004FF400102168486120680BF05DFA00F441
:102C40008010B0F5801F03D14FF4801021684861D7
:102C500020680BF051FA00F08060B0F1806F03D172
:102C60004FF080602168486120680BF045FA00F061
:102C70000200022801D12168486120680BF03CFA6B
:102C800000F00050B0F1005F10D1D6F8400420F001
:102C90002E00C6F840042046FFF7F1FD0121206810
:102CA0000BF0CEF94FF000502168486120680BF01E
:102CB00023FA00F08070B0F1807F02D1204603F04B
:102CC00063FF20680BF018FA00F00800082805D10F
:102CD000204600F0E3F808202168486120680BF0E6
:102CE0000BFA00F00070B0F1007F27D120680AF0E5
:102CF000DEFF074600251AE035E005F00F01012050
:102D00008840384090B106F5A06000EB451000689F
:102D100000F40040B0F5004F04D1E9B2204603F0C2
:102D2000D6F903E0E9B2204603F089FC6D1CA068E7
:102D3000A842E2D84FF000702168486120680BF08B
:102D4000DBF9C0F3001070B12068806920F010003A
:102D500021688861204603F087FF2068806940F081
:102D600010002168886100BF58E730B58BB0044679
:102D700014B901200BB030BD256894F8B90228B908
:102D8000002084F8B802204600F02AF8032084F8D6
:102D9000B902E86B00F4807008B900212161206855
:102DA0000AF0E4F9282204F110016846FDF74BFA15
:102DB00094E80F0009F0F6FF012120680BF0D0F92C
:102DC000282204F110016846FDF73DFA94E80F004F
:102DD0000BF0B6F8012084F8B9020020CAE7000021
:102DE00010B586B00446142101A8FDF745FA1E4926
:102DF0002068884236D100BF002000901B48006840
:102E000040F00200194908600846006800F002001E
:102E1000009000BF00BF4FF440400190022002909C
:102E200000200390032004900C20059001A9104875
:102E3000FFF7FCFB00BF002000900C48006840F04A
:102E400000500A4908600846006800F000500090F1
:102E500000BF00BF002211464D2000F038FB4D207E
:102E600000F025FB06B010BD0000044030380240E1
:102E70000004024010B50446D4F8C00208F028FA55
:102E800010BD10B50446D4F8C00208F025FA10BDF4
:102E900010B5044620680BF045F910BD10B5044686
:102EA000D4F8C00208F0BAF910BD10B5044600BF4E
:102EB00094F8B802012801D1022010BD012084F845
:102EC000B80200BF20680AF0FBFC012120680AF06C
:102ED00077F900BF002084F8B80200BF00BFECE71C
:102EE00010B5044600BF94F8B802012801D10220B1
:102EF00010BD012084F8B80200BF20680BF0DEF995
:102F000000BF002084F8B80200BF00BFF0E7000057
:102F1000034800680349097808440149086070477C
:102F2000000100200801002010B50D48006840F4A1
:102F300000700B4908600846006840F48060086033
:102F40000846006840F480700860032000F0FEFA34
:102F5000002000F007F800F02BF8002010BD000062
:102F6000003C024070B504460E4800784FF47A7178
:102F7000B1FBF0F00C490968B1FBF0F5284602F00E
:102F8000EAFD08B1012070BD102C07D200222146B5
:102F9000501E00F09CFA0548046001E00120F2E7B1
:102FA0000020F0E7080100200C01002004010020AF
:102FB00008B500BF002000900E48006840F4804033
:102FC0000C4908600846006800F48040009000BF8B
:102FD00000BF00BF00200090081F006840F0805034
:102FE000091F08600846006800F08050009000BF8C
:102FF00000BF08BD4438024030B503460C460021EE
:1030000000BF93F84800012801D1022030BD012003
:1030100083F8480000BF93F84900022800D1F5E783
:10302000986810B94FF0C0410DE09868022802D1AD
:103030004FF0C84107E09868042802D14FF0D04112
:1030400001E04FF0D841022083F84900AA25214829
:103050000068012802D101F6AA2001E001F25550D2
:10306000058055251B480068012802D101F2545003
:1030700001E001F2AA200580802516480068012899
:1030800002D101F6AA2001E001F255500580AA25DF
:1030900010480068012802D101F6AA2001E001F2DF
:1030A0005550058055250B480068012802D101F2D2
:1030B000545001E001F2AA2005803020A0520120E6
:1030C00083F8490000BF002083F8480000BF00BF1C
:1030D0009CE70000FC0000202DE9F04781460C46EB
:1030E000154601270026B046B2462946484600F05C
:1030F00074F8FFF7B7FB82462BE0681C38B12DB19E
:10310000FFF7B0FBA0EB0A00A84200D903272688EE
:10311000B4F8008006F0400008F04001884202D177
:103120000020BDE8F08706F02000202800D101270C
:103130002688B4F8008006F0400008F0400188427C
:1031400001D10020EDE706F02000202801D1022067
:10315000E7E70FB1032FD0D13846E2E770B5044658
:103160000E4615460CB9012070BD94F8490028B9E7
:10317000002084F84800204600F02AF804F10801F5
:103180002068FEF7ABFA3146A2682068FEF7E0FA45
:103190002946236BD4E90102FEF77CFAA168206876
:1031A00050F8210040F00100A268216841F8220097
:1031B000606918B900200549086002E00120034950
:1031C0000860012084F849000020CDE7FC000020C1
:1031D00010B50446FFF752F910BD704730B50346ED
:1031E0000C46002100BF93F84800012801D10220BD
:1031F00030BD012083F8480000BF93F84900022841
:1032000000D1F5E7986810B94FF0C0410DE098681B
:10321000022802D14FF0C84107E09868042802D183
:103220004FF0D04101E04FF0D841022083F849002F
:10323000AA2516480068012802D101F6AA2001E05B
:1032400001F255500580552510480068012802D12B
:1032500001F2545001E001F2AA200580A0250B489C
:103260000068012802D101F6AA2001E001F25550C0
:10327000058010882080012083F8490000BF0020CD
:1032800083F8480000BF00BFB2E70000FC00002048
:1032900070B504460D46002100BF94F8480001288F
:1032A00001D1022070BD012084F8480000BF94F8CD
:1032B0004900022800D1F5E7A06810B94FF0C041DD
:1032C0000DE0A068022802D14FF0C84107E0A068D5
:1032D000042802D14FF0D04101E04FF0D841022044
:1032E00084F84900AA2619480068012802D101F68D
:1032F000AA2001E001F255500680552613480068C7
:10330000012802D101F2545001E001F2AA20068006
:10331000F0260E480068012802D101F6AA2001E03B
:1033200001F25550068004E0288822F8020BAD1CFB
:103330005B1E002BF8D1012084F8490000BF00205B
:1033400084F8480000BF00BFACE70000FC0000208C
:1033500010B502460B46002100BF92F84800012834
:1033600001D1022010BD012082F8480000BF92F870
:103370004900022800D1F5E7906810B94FF0C0412C
:103380000DE09068022802D14FF0C84107E0906834
:10339000042802D14FF0D04101E04FF0D841022083
:1033A00082F84900AA2428480068012802D101F6C1
:1033B000AA2001E001F255500480552422480068FB
:1033C000012802D101F2545001E001F2AA20048048
:1033D00090241D480068012802D101F6AA2001E0CE
:1033E00001F25550048018480068012800D100E01F
:1033F00000BF0888188014480068012801D1881C83
:1034000000E0481C008858800F480068012802D15D
:1034100001F11C0001E001F10E00008898800A48CB
:103420000068012802D101F11E0001E001F10F0046
:103430000088D880012082F8490000BF002082F86F
:10344000480000BF00BF8DE7FC00002001460022BD
:1034500000BF91F84800012801D1022070470120E7
:1034600081F8480000BF91F84900022800D1F5E733
:10347000886810B94FF0C0420DE08868022802D178
:103480004FF0C84207E08868042802D14FF0D042CC
:1034900001E04FF0D842F0201080012081F849006F
:1034A00000BF002081F8480000BF00BFD6E70146FA
:1034B0000846002809DB00F01F0301229A40430957
:1034C0009B0003F1E023C3F8002100BF70472DE902
:1034D000F05F80460D46164600270BF007F90746B9
:1034E00039462A46334601F00700C0F1070ABAF10F
:1034F000040F02D94FF0040A01E0C0F1070AD146D7
:1035000000F1040ABAF1070F02D24FF0000A01E0FD
:10351000A0F1030AD4464FF0010A0AFA09FAAAF107
:10352000010A0AEA020A0AFA0CFA4FF0010B0BFA36
:103530000CFBABF1010B0BEA030B4AEA0B0421462F
:1035400040460BF0DBF8BDE8F09F000000BF00F044
:103550000702064B19684FF6FF031940044B0B4353
:1035600043EA0221014B196000BF70470CED00E0F7
:103570000000FA057047024610684162002070475B
:10358000F0B5034615461868446A21B944EA054077
:103590001E68B06219E01868806A04EB10440022CB
:1035A00008E0186800F5827050F8220004EB10441F
:1035B000501CC2B2481E9042F3D844EA054718682E
:1035C00000F582704E1E40F826700020F0BD10B548
:1035D0000446D4F8040406F059FD10BD70B5044645
:1035E0000D46C5EBC50304F13C0101EB8301CA683C
:1035F0002946D4F8040406F076FC70BD70B5044684
:103600000D46C5EBC50304F5FE7101EB8301CA68E5
:103610002946D4F8040406F0E6FC70BD10B5044653
:10362000D4F8040406F035FD10BD70B504460E460E
:1036300006F0800080280AD106F00F00C0EBC00120
:1036400004F13C0000EB81050120687009E006F000
:103650000F00C0EBC00104F5FE7000EB81050020F7
:10366000687006F00F00287000BF94F8BC030128B2
:1036700001D1022070BD012084F8BC0300BF29469F
:10368000206809F0F7FB00BF002084F8BC0300BFEE
:1036900000BFEFE770B504460E4606F00F00616804
:1036A000884201D9012070BD06F0800080280AD12F
:1036B00006F00F00C0EBC00104F13C0000EB8105F7
:1036C0000120687009E006F00F00C0EBC00104F5AE
:1036D000FE7000EB8105002068700020A87006F0E5
:1036E0000F00287000BF94F8BC03012801D102200C
:1036F000D9E7012084F8BC0300BF2946206809F0FF
:10370000A9FE00BF002084F8BC0300BF00BFCAE7C9
:10371000024601F00F00C0EBC00302F5FE7000EBA3
:103720008300806970472DE9F04705460E469046B4
:103730001F464FF0000906F0800080280AD106F0ED
:103740000F00C0EBC00105F13C0000EB810401203B
:10375000607009E006F00F00C0EBC00105F5FE70D7
:1037600000EB81040020607006F00F002070C4F8A8
:103770000880E770607808B12078E080022F01D1DE
:103780000020207100BF95F8BC03012802D102205F
:10379000BDE8F087012085F8BC0300BF21462868FA
:1037A00009F074FA00BF002085F8BC0300BF48464A
:1037B000EEE72DE9F04104460E461746984606F01E
:1037C0000F00C0EBC00104F5FE7000EB8105EF6057
:1037D000C5F814800020A861687006F00F002870FA
:1037E0002069012800D12F6106F00F0028B9227C42
:1037F0002946206809F00AFD04E0227C2946206859
:1038000009F0BCFE0020BDE8F08170B504460D460D
:1038100005F00F006168884201D9012070BD05F0F4
:10382000800080280AD105F00F00C0EBC00104F130
:103830003C0000EB81060120707007E0C5EBC5017C
:1038400004F5FE7000EB8106002070700120B0705E
:1038500005F00F00307000BF94F8BC03012801D1BF
:103860000220DBE7012084F8BC0300BF314620685A
:1038700009F037FE05F00F0028B9217C04F57172BC
:10388000206809F0AFFD00BF002084F8BC0300BF32
:1038900000BFC3E72DE9F04104460E46174698469F
:1038A00006F00F00C0EBC00104F13C0000EB810505
:1038B000EF60C5F814800020A8610120687006F050
:1038C0000F0028702069012800D12F6106F00F0039
:1038D00028B9227C2946206809F098FC04E0227C63
:1038E0002946206809F04AFE0020BDE8F0812DE954
:1038F000FE4F044620680290029E20680AF03CF8C1
:1039000000287DD120680AF0F7FB08B9BDE8FE8FDA
:1039100020680AF0F1FB00F00200022805D12068BF
:10392000406900F002002168486120680AF0E4FB69
:1039300000F40020B0F5002F58D1002520680AF0CF
:10394000ABFB82464FE00AF00100002848D0E9B204
:1039500020680AF0C4FB804608F0010048B101214C
:1039600006F5306000EB451081602946204603F0E3
:10397000D5FE08F00800082809D12946204603F0A2
:1039800087FE082106F5306000EB4510816008F0E5
:103990001000102805D1102106F5306000EB45100D
:1039A000816008F0200020280ED12069012805D16F
:1039B00004F571720121206809F014FD202106F53B
:1039C000306000EB4510816008F40050B0F5005FF6
:1039D00006D14FF4005106F5306000EB45108160D0
:1039E0006D1C4FEA5A0ABAF1000FACD120680AF0F8
:1039F00083FB00F48020B0F5802F7ED1206800E0AA
:103A000012E20AF03FFB8246002586E00AF0010040
:103A100000287FD0E9B220680AF048FB804608F011
:103A20000100E8B305F00F0101208840019040F645
:103A300034008159019821EA000040F63401885190
:103A4000012106F5106000EB451081602069012816
:103A500015D1C5EBC50104F13C0000EB8100C5EBBD
:103A6000C502C16804F13C0000EB8200806801449B
:103A7000C5EBC50204F13C0000EB8200C160E9B275
:103A80002046FFF7ABFD2069012810D145B9C5EBF1
:103A9000C50104F13C0000EB8100406900B900E081
:103AA00005E004F571720121206809F09BFC08F023
:103AB0000800082805D1082106F5106000EB451024
:103AC000816008F01000102805D1102106F5106063
:103AD00000EB4510816008F04000402805D14021EE
:103AE00006F5106000EB4510816008F00200022826
:103AF00008D1022106F5106001E012E00AE000EBB7
:103B00004510816008F08000802803D129462046B6
:103B100003F0C4FE6D1C4FEA5A0ABAF1000F7FF49D
:103B200075AF20680AF0E8FA00F00040B0F1004FED
:103B30001CD140F60400805920F0010140F6040039
:103B4000815194F8F403012807D1002084F8F4038C
:103B500000212046FFF70EFD02E0204600F098FA13
:103B60002068406900F000402168486120680AF040
:103B7000C3FA00F40060B0F5006F0ED140F6080003
:103B8000805900F0010010B1204600F0D9FA2068F9
:103B9000406900F400602168486120680AF0ACFACE
:103BA00000F48050B0F5805F72D140F60400805977
:103BB00020F0010140F6040081511021206809F035
:103BC0009DFE002726E04FF67F3106F5106000EBE2
:103BD0004710816006F5106000EB4710006820F484
:103BE000001106F5106000EB471001604FF67F31C1
:103BF00006F5306000EB4710816006F5306000EBA1
:103C00004710006820F4001106F5306000EB471003
:103C100001607F1C6068B842D5D840F61C0080590E
:103C200040F0011140F61C008151206B70B1D6F8B4
:103C3000840840F00B01C6F8841840F6440080590F
:103C400040F00B0140F6440081510FE040F61400B3
:103C5000805942F22B01084340F614018851081F95
:103C6000805940F00B014FF401608151D6F80008F3
:103C700020F4FE60C6F80008217C04F5717220680B
:103C800009F0B0FB2068406900F480502168486169
:103C900020680AF031FA00F40050B0F5005F17D147
:103CA000206809F05BF8206809F047FEE06000F04A
:103CB0008DFC0090227B206800990AF08BFA204648
:103CC00000F0CEF92068406900F400502168486196
:103CD00020680AF011FA00F01000102846D1206880
:103CE000806920F01000216888610298D0F8209047
:103CF00009F00F00C0EBC00104F5FE7000EB810B72
:103D0000C9F3434002281AD147F6F07009EA0000CF
:103D100030B3C9F30A12DBF80C1002980AF0F1F97B
:103D2000C9F30A11DBF80C000844CBF80C00C9F306
:103D30000A11DBF818000844CBF8180010E0C9F3AA
:103D4000434006280CD1082204F5717102980AF04C
:103D5000D8F9C9F30A11DBF818000844CBF81800A9
:103D60002068806940F010002168886120680AF0AE
:103D7000C3F900F00800082808D1204600F08FF9A8
:103D80002068406900F008002168486120680AF056
:103D9000B3F900F48010B0F5801F0AD10025294640
:103DA000204600F043F82068406900F48010216844
:103DB000486120680AF0A0F900F40010B0F5001F77
:103DC0000AD100252946204600F039F820684069CC
:103DD00000F400102168486120680AF08DF900F0B5
:103DE0008040B0F1804F08D12046FFF7F0FB2068FB
:103DF000406900F080402168486120680AF07CF941
:103E000000F0040004280FD12068D0F8049009F0D5
:103E10000400042802D12046FFF700FC2068406817
:103E200040EA09002168486000BF6FE570B50446AC
:103E30000D462946D4F8040406F092F970BD70B519
:103E400004460D462946D4F8040406F08CF970BDEA
:103E500070B58AB0044614B901200AB070BD266856
:103E600094F8BD0328B9002084F8BC03204600F074
:103E7000A3F8032084F8BD03F06B00F4807008B948
:103E800000212161206809F071F9282204F1100154
:103E90006846FCF7D8F994E80F0008F083FF20B1DA
:103EA000022084F8BD030120D7E7002120680AF032
:103EB00057F9002531E00121C5EBC50204F13C00B2
:103EC00000EB82004170C5EBC50104F13C0000F835
:103ED0002150C5EBC50100EB8100C5800021C5EB79
:103EE000C50204F13C0000EB8200C170C5EBC502C5
:103EF00004F13C0000EB82008160C5EBC50204F1D7
:103F00003C0000EB8200C160C5EBC50204F13C003F
:103F100000EB82004161681CC5B26068A842CAD843
:103F200000252AE00021C5EBC50204F5FE7000EB78
:103F300082004170C5EBC50104F5FE7000F8215008
:103F40000021C5EBC50200EB8200C170C5EBC502C4
:103F500004F5FE7000EB82008160C5EBC50204F53C
:103F6000FE7000EB8200C160C5EBC50204F5FE7077
:103F700000EB82004161681CC5B26068A842D1D8DC
:103F8000282204F110016846FCF75DF994E80F005F
:103F900008F0F2FF20B1022084F8BD0301205CE7A5
:103FA000002084F83800012084F8BD03206808F060
:103FB000D3FF002051E7000010B586B0044614215D
:103FC00001A8FCF759F92068B0F1A04F42D100BF19
:103FD000002000902048006840F001001E49086061
:103FE0000846006800F00100009000BF00BF4FF4D9
:103FF000C050019002200290002003900320049002
:104000000A20059001A91548FEF710FB00BF1248D1
:10401000001D006840F080000F49091D086000BFC6
:10402000002000900C481430006840F480400A4999
:10403000143108600846006800F48040009000BF1A
:1040400000BF00BF002211464320FFF740FA432083
:10405000FFF72DFA06B010BD3038024000000240D4
:1040600070B504460125E06808B9002506E0E0685F
:10407000022801D1012501E0FDF7D6F92946D4F83F
:10408000040406F0E9F8D4F8040406F09FF870BDC3
:1040900010B50446D4F8040406F0C6F810BD10B5F7
:1040A0000446D4F8040406F0C6F810BD70B5044602
:1040B0000D4600BF94F8BC03012801D1022070BD59
:1040C000012084F8BC0300BF84F8385029462068DA
:1040D0000AF061F800BF002084F8BC0300BF00BFF5
:1040E000EDE710B5044604F57171D4F8040406F048
:1040F000CAF810BD70B50446256800BF94F8BC032B
:10410000012801D1022070BD012084F8BC0300BF4A
:10411000A06A012806D1A069012803D0A86B40F449
:104120008030A863206808F007FF206809F0C8FB0A
:1041300000BF002084F8BC0300BF00BFE3E700001D
:1041400010B50446D4F8040406F0F6F82068D0F858
:10415000000E40F001002168C1F8000E206A28B16D
:104160000348006840F006000149086010BD0000E7
:1041700010ED00E0F8B5044600250026207800F098
:10418000010020B9207800F00200022852D100205E
:10419000A8498866FEF766FB054606E0FEF762FB67
:1041A000401B022801D90320F8BDA3480068C0F3D2
:1041B000C0600028F2D1207800F0010038B16068BA
:1041C0008101207A41EA00709B498431086020789F
:1041D00000F00200022819D1974884300068C0F32B
:1041E000027660688101207B41EA006040EA067047
:1041F00091498431086090488C30006820F01F009D
:10420000E169491E08438C498C31086001208949C5
:104210008866FEF727FB054606E0FEF723FB401BFA
:10422000022801D90320BFE783480068C0F3C060BB
:104230000028F2D0207800F00400042804D0207870
:1042400000F00800082863D100207A490867FEF7CB
:1042500009FB054606E0FEF705FB401B022801D9D5
:104260000320A1E774480068C0F340700028F2D131
:10427000207800F00400042819D16F4888300068C5
:10428000C0F3027620698101207D41EA006040EAA6
:104290000670694988310860081D006820F4F851EB
:1042A000206A401E41EA002063498C310860207872
:1042B00000F00800082817D15F4888300068C0F374
:1042C00003662069800140EA0661207E41EA0070B1
:1042D000594988310860081D006820F44030616A3F
:1042E000084355498C310860012052490867FEF7A0
:1042F000B9FA054606E0FEF7B5FA401B022801D9D7
:10430000032051E74C480068C0F340700028F2D009
:10431000207800F0200020287ED100BF00200090EF
:1043200045484030006840F08050434940310860C3
:104330000846006800F08050009000BF00BF3F4872
:10434000006840F480703D490860FEF78BFA05462E
:1043500006E0FEF787FA401B022801D9032023E775
:104360003648006800F480700028F2D0324870307F
:10437000006800F440764EB3208D00F44070B042E7
:1043800024D02D487030006820F4407601202C495C
:10439000086000200860284870300660006800F05F
:1043A000010098B1FEF75EFA054608E0FEF75AFAFA
:1043B000401B41F28831884201D90320F4E61E48AF
:1043C00070300068C0F340000028EFD000BF208D9F
:1043D00000F44070B0F5407F0CD1174808300068F9
:1043E00020F4F810174AA16A114008431249083115
:1043F000086007E010480830006820F4F8100E4903
:10440000083108600C4870300068218DC1F30B0141
:1044100008430949703100E001E0086000BF2078DE
:1044200000F01000102803D194F82C000649086011
:104430000020B9E60000474200380240007000400A
:10444000400E4742FFFCFF0FE011474270B50446A3
:104450000D460CB9012070BD5848006800F00F00EF
:10446000A84209D255490D700846006800F00F00B7
:10447000A84201D00120EEE7207800F002000228D7
:104480001DD1207800F00400042805D14C480068B4
:1044900040F4E0504A490860207800F008000828FD
:1044A00005D14748006840F46040454908604448E9
:1044B000006820F0F000A1680843414908602078B6
:1044C00000F00100A8B36068012807D13C48083813
:1044D0000068C0F34040B8B90120BCE7606802281A
:1044E00002D06068032807D1354808380068C0F357
:1044F000406048B90120AEE7314808380068C0F391
:10450000400008B90120A6E72D48006820F003000C
:10451000616808432A490860FEF7A4F9064609E0E5
:10452000FEF7A0F9801B41F28831884202D90320AE
:1045300091E707E02248006800F00C006168B0EBEA
:10454000810FEDD11D48006800F00F00A84209D985
:104550001A490D700846006800F00F00A84201D00B
:10456000012078E7207800F00400042807D11448DF
:10457000006820F4E050E1680843114908602078A1
:1045800000F00800082808D10D48006820F46040B9
:10459000216940EAC1000A49086000F03DF8084975
:1045A0000968C1F30311074A515CC8400649086015
:1045B0000020FEF7D7FC00204DE70000003C024041
:1045C000083802401CBC01080C01002001480068AA
:1045D000704700000C01002000B5FFF7F7FF044909
:1045E0000968C1F38221034A515CC84000BD000044
:1045F000083802402CBC010800B5FFF7E7FF04496A
:104600000968C1F34231034A515CC84000BD000053
:10461000083802402CBC01082DE9F0470024002591
:104620000026A1462548006800F00C0020B10428AF
:1046300005D008283AD105E0DFF8849039E0DFF8AA
:10464000849036E01D48001F006800F03F041B48BE
:10465000001F006800F4800078B11A481749091F4C
:104660000968C1F38811A0FB0170014622460023AE
:104670003846FBF7B7FD05460EE011480F49091F04
:104680000968C1F38811A0FB01700146224600238E
:104690003846FBF7A7FD05460848001F0068C0F331
:1046A0000140401C4600B5FBF6F902E0DFF810902F
:1046B00000BF00BF4846BDE8F08700000838024050
:1046C0000024F40000366E01F8B504460CB9012050
:1046D000F8BD207800F00100002874D0F948006887
:1046E00000F00C0004280DD0F648006800F00C0023
:1046F000082813D1F348001F006800F48000B0F5CB
:10470000800F0BD1EF4808380068C0F34040002804
:1047100059D06068002856D10120D9E700BF6068F1
:10472000B0F5803F08D1E7480838006840F4803091
:10473000E449083908601EE06068B0F5A02F0DD18B
:10474000E0480838006840F48020DE4908390860F5
:104750000846006840F4803008600CE0D94808380A
:10476000006820F48030D74908390860084600689E
:1047700020F48020086000BF606890B1FEF772F8F6
:10478000054606E0FEF76EF8401B642801D90320B9
:104790009EE7CC4808380068C0F340400028F1D0BC
:1047A00011E0FEF75FF8054606E0FEF75BF8401BF8
:1047B000642801D903208BE7C24808380068C0F399
:1047C00040400028F1D1207800F0020002285FD19B
:1047D000BC48006800F00C0058B1BA48006800F00E
:1047E0000C0008281CD1B748001F006800F48000A6
:1047F000B0B9B44808380068C0F3400020B1E068A0
:10480000012801D0012063E7AE480838006820F095
:10481000F800216940EAC100AA490839086037E078
:10482000E06800B30120A8490860FEF71BF80546C0
:1048300006E0FEF717F8401B022801D9032047E7DE
:10484000A04808380068C0F340000028F1D09D4817
:104850000838006820F0F800216940EAC100994951
:104860000839086014E0002097490860FDF7FAFF56
:10487000054606E0FDF7F6FF401B022801D903209C
:1048800026E7904808380068C0F340000028F1D1BE
:10489000207800F0080008282CD16069A8B1012018
:1048A0008A490860FDF7DEFF054606E0FDF7DAFFFE
:1048B000401B022801D903200AE782486C300068B7
:1048C000C0F340000028F1D014E000207F490860C8
:1048D000FDF7C8FF054606E0FDF7C4FF401B0228B0
:1048E00001D90320F4E677486C300068C0F340003B
:1048F0000028F1D1207800F00400042870D10026AF
:1049000070483830006800F0805090B900BF002037
:1049100000906C483830006840F080506949383168
:1049200008600846006800F08050009000BF00BF9B
:1049300001266748006800F48070B0B964480068D8
:1049400040F4807062490860FDF78CFF054606E080
:10495000FDF788FF401B022801D90320B8E65C4818
:10496000006800F480700028F2D000BFA068012821
:1049700008D154486830006840F00100514968315E
:1049800008601DE0A06805280DD14E486830006819
:1049900040F004004B49683108600846006840F068
:1049A000010008600CE047486830006820F0010012
:1049B0004449683108600846006820F00400086037
:1049C00000BFA068A8B1FDF74DFF054609E0FDF75F
:1049D00049FF401B41F28831884202D9032077E623
:1049E00026E0384868300068C0F340000028EED068
:1049F00013E0FDF737FF054608E0FDF733FF401BE6
:104A000041F28831884201D9032061E62D4868309F
:104A10000068C0F340000028EFD1012E07D12948DB
:104A20003830006820F0805026493831086000BFD7
:104A3000A069B8B32348006800F00C0008285ED0D5
:104A4000A069022846D100201F490866FDF70AFF29
:104A5000054606E0FDF706FF401B022801D90320AA
:104A600036E6184808380068C0F340600028F1D1E5
:104A7000D4E907010843616A40EA81110122A06A72
:104A8000C2EB500041EA00412C20005D41EA006089
:104A90000C49091F086001200B490866FDF7E2FE7A
:104AA000054607E02DE0FDF7DDFE401B022801D999
:104AB00003200DE6034808380068C0F34060002872
:104AC000F1D01EE00838024000004742800E474205
:104AD0000070004000200C490866FDF7C3FE054643
:104AE00006E0FDF7BFFE401B022801D90320EFE5D9
:104AF00006480068C0F340600028F2D101E00120C0
:104B0000E6E50020E4E500000000474200380240EE
:104B100070B505460B4616460024286840680E49C5
:104B200000EA0104200CD870C4F30420587004F08B
:104B30003F009870C4F3423018705EB9D87802F024
:104B4000D9FFD870587802F0D5FF5870987802F0E5
:104B5000D1FF9870002070BD3FFFFF0070B5044684
:104B60000B46164600252068806A58602068006958
:104B7000C0F30E009860206800680F4900EA010544
:104B8000C5F305401870C5F30620587005F07F0086
:104B9000987005F48000000CD8705EB9187802F0A7
:104BA000A9FF1870587802F0A5FF5870987802F0A5
:104BB000A1FF9870002070BD7F7F7F0010B5044674
:104BC0000CB9012010BD607F20B90020207720465D
:104BD00000F060F80220607700BFCA2021684862B8
:104BE00053202168486200BF204602F09BFF40B17D
:104BF00000BFFF202168486200BF042060770120C9
:104C0000E0E72068806822490840216888602169BF
:104C1000606808436169084321688968084321681E
:104C200088602168E068086120680169208941EA9C
:104C30000040216808612068C06820F08000216879
:104C4000C8602068806800F0200060B9204600F04D
:104C500045F940B100BFFF202168486200BF042031
:104C600060770120AEE72068006C20F48020216886
:104C700008642068006CA16908432168086400BFCB
:104C8000FF202168486200BF01206077002099E77B
:104C9000BFFF8FFF034A0168914202D10121024AFE
:104CA00011607047002800403C0E47422DE9F0415A
:104CB00004460D461646002700BF207F012802D17A
:104CC0000220BDE8F0810120207700BF022060773C
:104CD0004EB9687800F01000102804D1687800F010
:104CE000EF000A30687086B9E87802F00EFF03041E
:104CF000687802F00AFF43EA0023A87802F005FF73
:104D00000343287843EA403709E0E87800046978EB
:104D100040EA0120A9780843297840EA413700BFDA
:104D2000CA202168486253202168486200BF20469B
:104D300002F0F8FE60B100BFFF202168486200BFAA
:104D40000420607700BF0020207700BF0120B8E773
:104D500016483840216848602068C06820F080000C
:104D60002168C8602068806800F0200080B9204673
:104D700000F0B4F860B100BFFF202168486200BFB6
:104D80000420607700BF0020207700BF012098E753
:104D900000BFFF202168486200BF0120607700BF8C
:104DA0000020207700BF00BF8BE700003FFFFF001F
:104DB0002DE9F04104460D461646002700BF207F2E
:104DC000012802D10220BDE8F0810120207700BF38
:104DD00002206077CEB92068806800F0400000B102
:104DE00002E00020E87000BF287802F08EFE030485
:104DF000687802F08AFE43EA0023A87802F085FE74
:104E00000343E87843EA004712E02068806800F036
:104E1000400000B102E00020E87000BF28780004E4
:104E2000697840EA0120A9780843E97840EA014717
:104E300000BFCA202168486253202168486200BF31
:104E4000204602F06FFE60B100BFFF20216848627B
:104E500000BF0420607700BF0020207700BF012042
:104E6000B1E71D483840216808602068806820F458
:104E7000802021688860D5E903010843216889689A
:104E80000843216888602068C06820F0800021689D
:104E9000C8602068806800F0200080B9204600F0DB
:104EA0001DF860B100BFFF202168486200BF0420E8
:104EB000607700BF0020207700BF012083E700BF9C
:104EC000FF202168486200BF0120607700BF0020FA
:104ED000207700BF00BF76E77F7F7F0070B5044674
:104EE00000252068C06820F0A0002168C860FDF798
:104EF000B9FC054607E0FDF7B5FC401BB0F57A7F2D
:104F000001D9032070BD2068C06800F0200000288F
:104F1000F1D00020F6E770B504460D460CB901202B
:104F200070BD94F82C0028B9002084F82D0020468C
:104F300000F011F8022084F82C00211D2068FCF7F5
:104F400038FC2946D4E90002FCF76EFC012084F805
:104F50002C000020E4E710B50446FDF78FFA10BDE1
:104F600070B58AB004460D460026032084F834004C
:104F7000606C032820D0B5F5805F04D1A06B40F0B1
:104F80008050A0631CE0B5F5006F07D1204603F008
:104F900040FE0646A06B3043A06311E03DB92046B9
:104FA00003F002FE0646A06B3043A06308E0A06B4E
:104FB00040F00060A06303E0A06B40F08050A0636D
:104FC000A06B40B140F2FF5021688863012084F853
:104FD00034000AB070BD60680490A0680590E06875
:104FE0000690079560690890A069099007A807C80E
:104FF0008DE80700206804A90EC902F0DFFF012038
:1050000084F834000020E4E730B503460022586EEF
:10501000020E90090870C2F38300487002F003008A
:105020008870586EC0F30742CA70B3F86400C0F3CA
:1050300007220A7193F864204A71986E020E4FF6A7
:10504000FF7000EA0210C880986EC0F30742C8885B
:1050500040EA1210C88002F00F0008726820C05A9F
:10506000C0F30722D0094872C2F380108872C2F3DD
:105070004010C872C2F30010087300204873586CC7
:1050800000283ED19007000D08616820C25C0869C5
:1050900040EA82000861D86E020E086940EA921068
:1050A0000861C2F3C200087502F007004875D86EA7
:1050B000C0F3074250098875C2F38200C875900793
:1050C000400F08766C20C05AC0F30722087E40EAE1
:1050D000D21008760869401C58650C7E586DA41CD7
:1050E0000125A540684358650C7A0120A0409865C9
:1050F000D3E91504640A6043D8654FF400741C6654
:1051000030E0586C012821D16820C25C9006800AEA
:105110000861D86E020E086940EA02200861D86E64
:10512000C0F307420869104308616C20C05AC0F3FD
:1051300007220869441C4FF48060A4FB00045865F2
:10514000D8654FF400749C651C660BE040F2FF507C
:105150001C68A063986B40F080509863012083F82E
:10516000340030BDC2F3801001F8190F9006400ED4
:1051700048706C20C25C487840EAD210487002F057
:105180007F008870186F020ED009C870C2F34110FA
:105190000871C2F3820048719007000F8871186F80
:1051A000C0F30742887940EA92108871C2F3401038
:1051B000C8710020087202F0010048727020C05AC5
:1051C000C0F30722D0098872C2F38010C872C2F3FC
:1051D00040100873C2F300104873C2F38100887353
:1051E00002F00300C8737020C25C500808740120EC
:1051F000487419390020B4E70246506C0860906C7E
:105200004860D06C8860106DC860506D0861906D0A
:105210004861D06D8861106EC86100207047F8B594
:10522000044604260025002000906946204603F02D
:10523000A2FC054615B1A06B2843A0630098C0F3FB
:1052400043263046F8BD10B504460CB9012010BD08
:1052500094F8340020B900202077204600F050F860
:10526000032084F83400204600F008F80020A063F2
:105270002063012084F834000020E8E730B589B0CD
:1052800004460025002003900490059006900790A6
:105290007620089006A807C88DE80700206803A9B3
:1052A0000EC902F08BFE002014490860206802F04D
:1052B0009FFE01201149A039C1F8A0000220FCF78F
:1052C0006FFC204603F0E0FB054645B1012084F861
:1052D0003400A06B2843A063012009B030BD2046F4
:1052E00003F054FB05463DB1012084F83400A06B67
:1052F0002843A0630120F0E70020EEE7A0802542CC
:1053000010B586B00446142101A8FAF7B5FF2A4962
:10531000206888424DD100BF0020009027480068D7
:1053200040F40060254908600846006800F4006009
:10533000009000BF00BF00BF002000901F4814383D
:10534000006840F004001D491439086008460068F0
:1053500000F00400009000BF00BF00BF00200090DC
:105360000846006840F0080008600846006800F041
:105370000800009000BF00BF4FF4F85001900220D9
:10538000029000200390032004900C20059001A9B6
:105390000B48FDF74BF904200190022002900020F9
:1053A0000390032004900C20059001A90548FDF707
:1053B0003DF906B010BD0000002C01404438024009
:1053C00000080240000C02402DE9F04F87B004466F
:1053D0008A4690461E46DDF840900025FDF742FAC9
:1053E0000090AB465746BAF1000F07D1A06B40F0D2
:1053F0000060A063012007B0BDE8F08F94F834008E
:1054000001287DD10020A06308EB0601E06D8142F8
:1054100005D9A06B40F00070A0630120EBE70320EA
:1054200084F8340000202168C862606C012801D033
:105430004FEA48284FF40071206802F037FE054615
:1054400055B140F2FF5021688863A06B2843A063E8
:10545000012084F83400CEE74FF0FF300190700255
:1054600002909020039002200490002005900120DB
:10547000069001A9206802F077FD012E07D90220CD
:1054800020634146206802F07DFE054606E00120CB
:1054900020634146206802F092FE054655B140F275
:1054A000FF5021688863A06B2843A063012084F823
:1054B0003400A0E72AE02068406B00F4004068B1A7
:1054C0004FF0000B06E0206802F097FD47F82B0034
:1054D0000BF1010BBBF1080FF5D32037B9F1000F29
:1054E00005D0FDF7BFF90099401A48450ED340F2A8
:1054F000FF5021688863A06B40F00040A06300E08B
:1055000082E0012084F83400032074E72068406BB7
:1055100040F22A3108400028CDD02068406B00F4CA
:105520008070A0B1012E12D9606C03280FD02068C2
:1055300002F00CFF054655B140F2FF502168886328
:10554000A06B2843A063012084F8340053E720684F
:10555000406B00F0080058B140F2FF5021688863AA
:10556000A06B40F00800A063012084F8340042E7FB
:105570002068406B00F0020058B140F2FF502168F3
:105580008863A06B40F00200A063012084F834001F
:1055900031E72068406B00F0200058B140F2FF5026
:1055A00021688863A06B40F02000A063012084F88C
:1055B000340020E719E0206802F01FFD38603F1D2D
:1055C000B9F1000F05D0FDF74DF90099401A484593
:1055D0000BD340F2FF5021688863A06B40F000407D
:1055E000A063012084F8340005E72068406B00F4D4
:1055F00000100028DFD140F2FF50216888630120AD
:1056000084F834000020F6E6A06B40F00050A06360
:105610000120F0E62DE9F04F87B004468846174692
:105620001E46DDF840B00025FDF71CF90090A946A4
:10563000C246B8F1000F07D1A06B40F00060A06334
:10564000012007B0BDE8F08F94F8340001287DD127
:105650000020A063B919E06D814205D9A06B40F02C
:105660000070A0630120ECE7032084F834000020E0
:105670002168C862606C012800D07F024FF400717D
:10568000206802F013FD054655B140F2FF50216835
:105690008863A06B2843A063012084F83400D0E71E
:1056A000012E07D9202020633946206802F06CFEC5
:1056B000054606E0102020633946206802F081FE8E
:1056C000054655B140F2FF5021688863A06B28431E
:1056D000A063012084F83400B3E74FF0FF3001905D
:1056E0007002029090200390002004900590012009
:1056F000069001A9206802F037FC2AE02068406B80
:1057000000F4804070B14FF0000906E00AEB890117
:10571000206802F08AFC09F10109B9F1080FF5D3FC
:105720000AF1200ABBF1000F05D0FDF79BF80099A4
:10573000401A58450DD340F2FF5021688863A06B92
:105740002843A063012084F8340000E05EE00320D9
:1057500077E72068406B40F21A3108400028CDD02E
:105760002068406B00F48070A0B1012E12D9606CEB
:1057700003280FD0206802F0E9FD054655B140F23C
:10578000FF5021688863A06B2843A063012084F840
:10579000340056E72068406B00F0080058B140F232
:1057A000FF5021688863A06B40F00800A0630120CF
:1057B00084F8340045E72068406B00F0020058B1DF
:1057C00040F2FF5021688863A06B40F00200A063A4
:1057D000012084F8340034E72068406B00F01000AA
:1057E00058B140F2FF5021688863A06B40F0100070
:1057F000A063012084F8340023E740F2FF502168C1
:105800008863012084F8340000201AE7A06B40F080
:105810000050A063012014E710B504460CB9012024
:1058200010BD606A00B900BF0021A16294F8510068
:1058300028B9002084F85000204600F033F80220F8
:1058400084F851002068006820F04000216808605A
:10585000D4E901010843E16808432169084361690B
:105860000843218B01F400710843E1690843216A70
:105870000843A16A0843216808600421A06901EA7D
:105880001040616A0843216848602068C06920F4BC
:1058900000602168C86100206065012084F8510023
:1058A0000020BDE710B586B00446142101A8FAF720
:1058B000E3FC1B492068884230D100BF00200090E3
:1058C0001848006840F480101649086008460068CF
:1058D00000F48010009000BF00BF00BF00200090C7
:1058E00010481438006840F020000E491439086050
:1058F0000846006800F02000009000BF00BF4FF491
:105900006070019002200290002003900320049018
:105910000520059001A90448FCF788FE06B010BDDB
:105920000050014044380240001402402DE9FF5F5E
:105930000446884691461D460E9E01200290002096
:10594000019000BF94F85000012803D1022004B058
:10595000BDE8F09F012084F8500000BFFCF782FFF3
:10596000074694F851B060680390AA46BBF1010F56
:105970000BD00398B0F5827F04D1A06810B9BBF1B9
:10598000040F02D002200190DBE0B8F1000F03D039
:10599000B9F1000F00D015B901200190D1E094F8C1
:1059A0005100042802D0052084F8510000206065D1
:1059B000C4F83890E587A587C4F83080E586A586C9
:1059C000206460642068006800F04000402805D032
:1059D0002068006840F0400021680860E068B0F589
:1059E000006F4AD1606810B1BAF1010F09D1206B84
:1059F00000882168C860206B801C2063E08E401EF8
:105A0000E08633E02068806800F00200022810D1B0
:105A1000E08E70B1029801280BD1206B00882168BC
:105A2000C860206B801C2063E08E401EE086002052
:105A300002902068806800F0010068B1E08F58B1E2
:105A40002068C068A16B0880A06B801CA063E08FF9
:105A5000401EE08701200290FCF704FFC01BB0420B
:105A600004D3701C10B1032001906AE0E08E00287E
:105A7000C8D1E08F0028C5D14AE0606810B1BAF102
:105A8000010F09D1206B007821680873206B401C3E
:105A90002063E08E401EE08634E02068806800F0DD
:105AA0000200022810D1E08E70B1029801280BD1BB
:105AB000206B007821680873206B401C2063E08E07
:105AC000401EE086002002902068806800F00100FF
:105AD00068B1E08F58B12068C068A16B0870A06BF6
